:020000040800F2
:1000000000000220A51F0008A31F0008A11F000870
:10001000A11F0008A11F0008A11F00080000000088
:10002000000000000000000000000000A31F000806
:10003000A31F000800000000A31F00088D0F000888
:10004000A11F0008A11F0008A11F0008A11F000890
:10005000A11F0008A11F0008A11F0008A11F000880
:10006000A11F0008A11F0008A11F0008A11F000870
:10007000A11F0008A11F0008A11F0008A11F000860
:10008000A11F0008A11F000895020008A11F000879
:10009000A11F0008A11F0008A11F0008A11F000840
:1000A000A11F0008A11F0008A11F0008A11F000830
:1000B000A11F0008A11F0008A11F0008A11F000820
:1000C000A11F0008A11F0008A11F0008A11F000810
:1000D000A11F0008A11F0008A11F0008A11F000800
:1000E000A11F0008A11F0008A11F0008A11F0008F0
:1000F000A11F0008A11F0008A11F0008A11F0008E0
:10010000A11F0008A11F0008A11F0008A11F0008CF
:10011000A11F0008A11F0008A11F0008A11F0008BF
:10012000A11F0008A11F0008A11F0008A11F0008AF
:10013000A11F0008A11F0008A11F0008A11F00089F
:10014000A11F0008A11F0008A11F0008A11F00088F
:10015000A11F0008A11F0008A11F0008A11F00087F
:10016000A11F0008A11F0008A11F0008A11F00086F
:10017000A11F0008A11F0008A11F0008A11F00085F
:10018000A11F0008A11F0008A11F0008A11F00084F
:10019000A11F0008A11F0008A11F0008A11F00083F
:1001A000A11F0008A11F0008A11F000810B50B48DF
:1001B0000A4C01F068FC1021204601F06EFC48B1A9
:1001C000064C1021204601F068FC28B9044B188821
:1001D00080B210BD30BFEEE730BFF2E70020014033
:1001E0003800002000000000432908B512D101F0BA
:1001F0004BFB1FA3D3E9002302F01CFF02460B4672
:100200001DA1D1E9000101F0F1F901F0A7FB00EE19
:10021000100A08BD462917D101F036FB14A3D3E913
:10022000002302F007FF02460B4613A1D1E90001AB
:1002300001F0DCF915A3D3E9002302F0FBFE124B19
:10024000002201F0D5F9E0E74B29E2D101F01CFBD7
:1002500007A3D3E9002302F0EDFE02460B4606A1F8
:10026000D1E9000101F0C2F905A3D3E90023E8E7D1
:100270000AD7A3703D0AA73FA4703D0AD7D35C40BC
:10028000000000000010714000004040CDCCCCCCFC
:10029000CCCCFC3F70B51648164C174D01F023FC32
:1002A000064640B10023236020212B60BDE870404A
:1002B0000F4801F0F8BB0E4801F0AFFB2B68C0F30C
:1002C0000B001844286023680133236023680F2B38
:1002D0000CD92B682268B3FBF2F3084A04489BB29E
:1002E0001021138026602E6001F0DDFB0221DDE786
:1002F000002001403C000020400000203800002089
:100300002DE9F041002507460E462C461FFA81F8DC
:10031000ABB2984507D8B4FBF6F300EE103AB8EE4E
:10032000400ABDE8F081781901F00EF90135044466
:10033000EEE700002DE9F04F99B0654CDFF8A8A179
:1003400004900E469046059307460125384601F075
:10035000FBF88146142000F05FFE304601F0F4F80F
:100360008346142000F058FE781C01F0EDF806904A
:10037000142000F051FE701C01F0E6F807901420E4
:1003800000F04AFE00221146204600F012FF059BB5
:10039000CDF808B05246CDE9009314212B4609A8A8
:1003A00002F034FE09A9204600F0BCFF00224021E3
:1003B000204600F0FEFE079B0293059B0193069BDF
:1003C000009352466B1C142109A802F01FFE204620
:1003D00009A900F0A7FF3F4B1A78587842EA00209D
:1003E00000F099FC48B1022D07D9023DEDB2023F61
:1003F000023E204600F0C6FEA8E7374B1A78587830
:1004000042EA002000F087FC40B1A8F102039D42BF
:1004100004DA0235EDB202370236EAE72F4B1A78DA
:10042000587842EA002000F076FC28B1284800F015
:10043000A9FE19B0BDE8F08FDFF8B09099F8003050
:1004400099F8012043EA022363F30F0000F063FCF4
:1004500000283FF47BAF204600F094FE0498DFF8BC
:1004600090B04146FFF74CFF10EE100A01F01EFA63
:100470001B4ACDE9000114210EA802F0C7FD00229D
:100480001146204600F095FE5A46142113A802F0AA
:10049000BDFD13A9204600F045FF00224021204663
:1004A00000F087FE0EAB0F4A142113A802F0AEFD38
:1004B000204613A900F036FF99F8003099F80100A2
:1004C00043EA002000F027FC0028D8D091E700BFC5
:1004D0000000002071390008693900086F390008F0
:1004E000E8380008F7380008D83800086B390008E9
:1004F000EE3800082DE9F04F2DED028B8BB09246BF
:100500009DF858B03C4F1E468046894600F0B6FF25
:100510000BF1FF334FF47A725343002408EE103A84
:100520002546A3B2534511D3344B1A78587842EA82
:10053000002000F028FC33465246494640460BB0A6
:10054000BDEC028BBDE8F04FFFF7F4BE384600F07B
:1005500019FE00F0A3FFFFF729FE3146FFF744FE26
:10056000FCEEC07ACDED037A9DF80C30039300F0D9
:1005700085FF039B04EB0800194600F0BBFF00F069
:100580008DFF00F07BFFE9B204EB090000F0B2FF41
:1005900000221146384600F00CFE1421039B184A35
:1005A00000960DEB010002F031FD05A9384600F080
:1005B000B9FE00224021384600F0FBFD14212B46F5
:1005C000104A0DEB010002F021FD05A9384600F0AC
:1005D000A9FE4FF4617000F01FFD18EE100A00F044
:1005E0001BFD094B1A7858785D4442EA002000F060
:1005F000CAFBADB2013494E7000000208139000845
:10060000FF3800080839000883390008F0B587B0C2
:10061000274B284D284F0093002406AB234400228B
:100620001146284613F8186C00F0C3FD3A46142111
:1006300001A802F0EBFC01A9284600F073FE00229D
:100640004021284600F0B5FD1C4A3346142101A87C
:1006500002F0DCFC284601A900F064FE184B1A7871
:10066000587842EA002000F056FB30B12CB1013C32
:100670002846E4B200F086FDCFE7124B1A7858788E
:1006800042EA002000F047FB18B1022C01D80134E7
:10069000EEE70D4B1A78587842EA002000F03BFB59
:1006A0000028BAD0034800F06DFD304607B0F0BD19
:1006B0001020408000000020113900082139000876
:1006C0006B3900086F3900086D390008F0B587B044
:1006D000274B284D284F0093002406AB23440022CB
:1006E0001146284613F8186C00F063FD3A461421B1
:1006F00001A802F08BFC01A9284600F013FE00229D
:100700004021284600F055FD1C4A3346142101A81B
:1007100002F07CFC284601A900F004FE184B1A7870
:10072000587842EA002000F0F6FA30B12CB1013CD2
:100730002846E4B200F026FDCFE7124B1A7858782D
:1007400042EA002000F0E7FA18B1022C01D8013487
:10075000EEE70D4B1A78587842EA002000F0DBFAF9
:100760000028BAD0034800F00DFD304607B0F0BDB8
:1007700001020304000000202D390008213900087F
:100780006B3900086F3900086D3900082DE9F04712
:100790008AB044F24363ADF80C30002545F24D4376
:1007A000404CDFF81CA1ADF81030804689462E463B
:1007B0000AAB3344002213F81C3C88F800300AAB23
:1007C0002B44114613F8183C89F80030204600F0FD
:1007D000F0FC142152460DEB010002F017FC05A9B4
:1007E000204600F09FFD00224021204600F0E1FC61
:1007F00098F800302C4A0093142199F800300DEB42
:10080000010002F003FC05A9204600F08BFD274BF8
:100810001A78587842EA002000F07DFA074628B19D
:10082000204800F0AFFC0AB0BDE8F087204A1378FA
:10083000527843EA022363F30F0000F06CFA28B108
:1008400026B1204600F09EFC3E46B1E7194B1A78CF
:10085000587842EA002000F05EFA28B126B9204616
:1008600000F090FC0126A3E7134B1A78587842EA6F
:10087000002000F050FA28B125B1204600F082FC9B
:10088000002595E70D4B1A78587842EA002000F0D1
:1008900042FA00288CD0002D8AD1204600F072FC4C
:1008A000012585E7000000203D3900086D3900086A
:1008B0006B3900086F390008693900087139000880
:1008C0003939000838B50D180446AC4202D100246D
:1008D000204638BD204600F037FEFF2804F1010312
:1008E000F6D01C46F1E700002DE9F04F40F204601D
:1008F0008DB001F0B5F9D14C40F2036001F0B0F9D0
:10090000002000F06FFA23786078012143EA00208C
:1009100000F01FFA032001F0C1F9032001F028FACA
:10092000032001F0D3F90028FAD00020002501F0BF
:1009300059FA042007230222A821009501F0C6FAE3
:1009400001F08AFA284601F013FA002001F0BEF9FE
:100950000028FAD0002001F0ADFA052001F09EFA3F
:10096000042001F08FFA01F0EFF801F0F7F807200A
:1009700001F0DEF8022001F079FA002001F0D8F948
:10098000AF4BB04A1A60B04BB04A1A60B04BB14A94
:100990001A60042001F026FA23786078002143EAE7
:1009A000002000F0D6F9082144F2A01000F0F6FA79
:1009B00062B6A948DFF8A88200F048FCC821A64822
:1009C00000F022FC00F0E0FC40F2016001F048F988
:1009D00000221146A148022301F0FBF80223002265
:1009E00003219E4801F0D5F8042001F04BFA40F6AF
:1009F000880001F035F94FF4403001F05DF8984877
:100A0000002101F065F8964801F002F807AD0024D6
:100A10002E460927E1B207224046013401F06CF866
:100A2000102C05F8017BF5D1324621468C4800F0A8
:100A3000FBFF8B4801F05BF8894800F0DFFF884836
:100A400000F0EDFF864800F0DEFF854801F046F833
:100A50000A21122001F030FB122001F01FFB804818
:100A600001F024F80A2000F0D7FA00F007FD4FF457
:100A700000610846FFF726FF4FF40061054600209D
:100A8000FFF720FF044670B94FF4206000F086FDA8
:100A90004FF4006000F082FD4FF4806000F07EFDB6
:100AA000204600F07BFD4D238DF81A304FF00009F1
:100AB0004323DFF8A4A18DF81B30CDF80C9010264D
:100AC0004FF00108FFF772FB9DF81B10FFF78CFB3E
:100AD000FCEEC07A0022CDED057A114650469DF815
:100AE000147000F066FB9DF81A305E4A142107A8C6
:100AF00002F08CFA07A9504600F014FC00224021B5
:100B0000504600F056FB9DF81B30574A00931421C5
:100B10003B46019407A802F079FA504607A900F075
:100B200001FC524B1A78587842EA002000F0F3F8A2
:100B3000C8B19DF81B30CDF80080324629462046CA
:100B4000FFF7D8FC4FF400610846FFF7BBFE4FF4F7
:100B5000006105900020FFF7B5FE059B0495A346B4
:100B6000B14604461D46039BFBB19DF81B30432B49
:100B70001BD1A7F11002092A17D93246294620466F
:100B8000CDF80080FFF7B6FC4FF400610846FFF790
:100B900099FE4FF4006105900020FFF793FE059B3E
:100BA0000495A346B14604461D46642000F034FA7D
:100BB000039B83B19DF81B30462B0CD13D3F122F78
:100BC00009D9CDF80080324629462046FFF792FC2D
:100BD000A3460495B146642000F01EFA4FF400616C
:100BE0000846FFF76FFE4FF4006105460020FFF74F
:100BF00069FE044670B94FF4206000F0CFFC4FF45A
:100C0000006000F0CBFC4FF4806000F0C7FC204691
:100C100000F0C4FC164B1A78587842EA002000F025
:100C20007AF838B3B9F1000F24D09DF81B3004993D
:100C30004A465846FFF77EFB1CE000BF813900089A
:100C40002C000020007A030A3000002080DE8002A1
:100C50003400002000BD0105000000200004024017
:100C6000002001404B3900085A3900086D3900084E
:100C700071390008184B1A78587842EA002000F0C1
:100C80004AF810B1FFF7C2FC0646144B1A785878A0
:100C900042EA002000F03FF810B1FFF717FD804650
:100CA0000F4B1A78587842EA002000F034F878B1F7
:100CB000504600F067FA0DF11A010DF11B00FFF725
:100CC00065FD9DF81A30A3F154025342534103933A
:100CD000642000F0A1F9F5E66B3900086F390008CF
:100CE00069390008002270B50546144610460126F1
:100CF00045FA02F3DB070AD541FA04F313F00103C6
:100D00001CBF06FA02F31BB2034398B2013401324E
:100D1000102AEDD170BD07B5ADF8040000F00F004A
:100D200000F580108030800200F030FF9DF8042034
:100D300001231209934018409DF80530C3F30003C6
:100D4000002818BF83F0010303F0010003B05DF831
:100D500004FB0A460123C0F303118B4082B099B211
:100D600000F00F0303F58013ADF804008033C0F3E7
:100D700000209B029042184602D002B000F0F8BE5C
:100D800002B000F0F7BE82B0C0F30313ADF8040068
:100D900000F00F00012100F580109940803089B2E9
:100DA000800202B000F0E9BE13B502AB03E9030014
:100DB000BDF8024011462046FFF794FF9DF8003031
:100DC000BDF8041003F00F0303F5801380339B027A
:100DD00048405A6980B222EA04021043586102B0C6
:100DE00010BD00002DE9F04106468AB0002416B17E
:100DF000082C40F0A480E3228DF81620C3228DF841
:100E00001820F3228DF81A2094228DF81E207422C7
:100E10008DF82020A422D3238DF82220B42201258E
:100E20008DF814308DF82420002373228DF81530AE
:100E30008DF817308DF819308DF81B308DF81C5057
:100E40008DF81D508DF81F308DF821308DF823302E
:100E50008DF825308DF826208DF827301C4605AFFB
:100E600037F81430ADF808300AAB03EB4403013413
:100E700013F8146C06F00F0848F4C06000F0F0FEA0
:100E8000360908F5801005FA06F380309BB200227F
:100E90000121800200F07DFE9DF8083068F3030315
:100EA00066F307138DF8083002980021FFF751FF11
:100EB0000A2CD5D140F2046000F0D2FE4FF470430A
:100EC00031480022012100F064FEB2238DF80A307F
:100ED00092238DF80C30F0238DF80E30622300241D
:100EE0008DF810308223ADF808408DF80B508DF846
:100EF0000D508DF80F508DF811508DF812308DF87F
:100F0000135001270AAB03EB4403013413F8203CD0
:100F100003F00F0545F4C0601E0900F0A1FE05F5C1
:100F20008010002207FA06F380309BB2114680023F
:100F300000F02FFE062CE5D10AB0BDE8F08144F4A4
:100F4000C065ADB2284600F08BFEA30203F18040DD
:100F500000F500304FF6FF7300220321019000F0EE
:100F600018FE00224FF6FF731146019800F031FE83
:100F700001984FF6FF72002100F046FE284600F06F
:100F80007DFE013433E700BF00100240024A1368BF
:100F900001331360704700BF44000020F8B50D46D0
:100FA000044608B90020F8BD430706BFC40801265F
:100FB000002601F06BF814F07F47F3D1002E0CBF30
:100FC0000420002001F04AF801F052F8204601F018
:100FD00039F84FF0E023E9B29C61FF2001F06CF892
:100FE000FF2001F05BF8034B1F6001F048F801207F
:100FF000D9E700BF44000020064B10B51C6801F083
:1010000027F84FF0E023B4FBF0F01B695B0758BFF3
:10101000C00810BD2C00002070B50C4C0546266899
:10102000FFF7EAFF4FF47A73B0FBF3F305FB03F02D
:10103000801906D32368984200D370BD30BFF9E70A
:1010400030BF23689842FBD2F7E700BF440000207E
:1010500070B5C8B1D0E906531BB9ADB108462B46EF
:1010600008E04FF47A74B1FBF4F004FB101425B9D6
:1010700004B10130BDE870401847B1F57A7F00D364
:1010800098470CB12046EAE770BD37B583680191F7
:10109000044618785B78012140EA0320FFF759FEE7
:1010A0002368019A5D791979186841EA0521FFF7EB
:1010B0007BFE20460121FFF7CBFFA3681A78587802
:1010C000002142EA0020FFF744FE0121204603B040
:1010D000BDE83040FFF7BCBF030607D56D30C0B296
:1010E0006C2802D8024B185C7047FF20704700BF85
:1010F0008739000870B515461E46044630B390F88F
:101100002830DB0722D5C36803B912BB63681A789D
:10111000587842EA0020FFF71CFEE3681A785878F6
:10112000294642EA0020FFF714FE94F8202012F02E
:10113000010211D0357820462909FFF7A6FF204685
:1011400005F00F01FFF7A1FF002070BD4FF0FF3049
:10115000FBE76FF00200F8E71046F6E773B51646B6
:1011600000228DF807100DF1070311460546FFF721
:10117000C1FF044618B931462846FFF769FF2046EB
:1011800002B070BD40F2FA520121FFF7E7BF42EA18
:10119000410141F004012722C9B2FFF7DFBF43EA52
:1011A000810141EA420141F008012722C9B2FFF75B
:1011B000D5BF0B060AD43AB111F0C00F06D14023B7
:1011C00027221943FFF7CABF8023F9E76FF0030016
:1011D000704713B5002204468DF807100DF1070380
:1011E0000121FFF787FF2B212046FFF731FF02B0D7
:1011F00010BD10B5436A044608469847014620468C
:10120000BDE81040FFF7E5BF10B5C0B190F8283039
:10121000DB0714D544691CB10846A047002010BD67
:1012200002697AB113785278204643EA02230039E2
:1012300063F30F0018BF0121FFF78BFDEEE76FF09E
:101240000300ECE76FF00200E9E7000038B5044660
:1012500000285CD00368002B5CD04268002A59D07B
:101260008268002A56D0826912B9C269002A51D018
:1012700094F82020D20750D5626A0AB9284A6262DF
:1012800094F8282019795D79186842F0010284F8F1
:10129000282041EA05210022FFF786FD63681A78BD
:1012A0005878002142EA0020FFF753FDE3681A78DE
:1012B0005878002142EA0020FFF74BFD0321204629
:1012C000FFF7E3FE41F204012046FFF7C1FE0221D1
:1012D0002046FFF7DAFE64212046FFF7B9FE02211F
:1012E0002046FFF7D2FE27212046FFF7B1FE00235C
:1012F0001A4601212046FFF752FF2046FFF742FF22
:10130000002201212046FFF742FF002038BD6FF088
:101310000300FBE76FF00400F8E76FF00100F5E76A
:10132000D910000838B505464C1E14F8011F01B944
:1013300038BD2846FFF75DFFF7E7000070B5074EA0
:101340000D46441E002C00DA70BD295D304600F0C9
:10135000E9FD304600F0EBFD013CF3E700300140D1
:1013600070B5084E0D46441E002C00DA70BD0021F9
:10137000304600F0D7FD304600F0D9FD2855013C3D
:10138000F2E700BF0030014010B54FF4C06000F03C
:1013900067FC40F2016000F063FC40F2036000F083
:1013A0005FFC20232C482D4C0322002100F011FC6F
:1013B00029482022052100F027FC2748202300226D
:1013C000022100F0E6FB302325480322002100F033
:1013D00000FC23483022052100F016FC2048302371
:1013E0000022022100F0D5FB1E48802303220021A9
:1013F00000F0EFFB0122114680231A4800F0C9FBE0
:101400008021184800F0B4FB40F68C0000F028FC66
:10141000204600F082FD0421204600F09DFD20467C
:1014200000F0A5FD204600F08DFD204600F0B3FD44
:10143000204600F082FD204600F089FD204600F0A5
:101440009BFD204600F09DFD204600F09FFD2046BC
:10145000BDE8104000F05CBD0000024000300140DB
:1014600000040240000C0240034B014618785B78F0
:1014700040EA0320FFF76DBC8539000808B500205D
:10148000FFF7F2FF01200449FFF758FFBDE80840CD
:101490000120FFF7E9BF00BFF839000808B50020B8
:1014A000FFF7E2FF06490120FFF748FF012004494A
:1014B000FFF744FFBDE808400120FFF7D5BF00BF9C
:1014C000F939000807B50020FFF7CEFF08490120D1
:1014D000FFF734FF0DF107010120FFF741FF012065
:1014E000FFF7C2FF9DF8070003B05DF804FB00BFE3
:1014F000F63900081FB58DF807100390FFF7E2FFDB
:1015000010F00100FAD1FFF7AFFF0E490120FFF7FD
:1015100015FF0DF10E010120FFF710FF0DF10D0178
:101520000120FFF70BFF03A90120FFF707FF0DF1D3
:1015300007010120FFF702FF0120FFF795FF05B02B
:101540005DF804FBF739000807B50190FFF7BAFF13
:1015500010F00100FAD1FFF787FF0F490120FFF7D4
:10156000EDFE0DF106010120FFF7E8FE0DF105018A
:101570000120FFF7E3FE01A90120FFF7DFFE0DF1D7
:1015800003010120FFF7ECFE0120FFF76DFF9DF83E
:10159000030003B05DF804FBF539000813B50446F9
:1015A000FFF790FF10F00100FAD10194FFF75CFF04
:1015B0000B490120FFF7C2FE0DF106010120FFF7E4
:1015C000BDFE0DF105010120FFF7B8FE01A90120C4
:1015D000FFF7B4FE0120FFF747FF02B010BD00BFC8
:1015E000F439000881F0004102E000BF83F00043BD
:1015F00030B54FEA41044FEA430594EA050F08BFAE
:1016000090EA020F1FBF54EA000C55EA020C7FEA71
:10161000645C7FEA655C00F0E2804FEA5454D4EBEE
:101620005555B8BF6D420CDD2C4480EA020281EAB8
:10163000030382EA000083EA010180EA020281EAF0
:101640000303362D88BF30BD11F0004F4FEA013142
:101650004FF4801C4CEA113102D0404261EB410151
:1016600013F0004F4FEA03334CEA133302D05242D7
:1016700063EB430394EA050F00F0A780A4F1010493
:10168000D5F1200E0DDB02FA0EFC22FA05F28018CD
:1016900041F1000103FA0EF2801843FA05F35941B3
:1016A0000EE0A5F120050EF1200E012A03FA0EFC32
:1016B00028BF4CF0020C43FA05F3C01851EBE3715C
:1016C00001F0004507D54FF0000EDCF1000C7EEB79
:1016D00000006EEB0101B1F5801F1BD3B1F5001FB7
:1016E0000CD349085FEA30004FEA3C0C04F10104D6
:1016F0004FEA445212F5800F80F09A80BCF1004FFF
:1017000008BF5FEA500C50F1000041EB045141EA80
:10171000050130BD5FEA4C0C404141EB0101013C49
:1017200028BFB1F5801FE9D291F0000F04BF014638
:101730000020B1FA81F308BF2033A3F10B03B3F10A
:1017400020020CDA0C3208DD02F1140CC2F10C029A
:1017500001FA0CF021FA02F10CE002F11402D8BFF8
:10176000C2F1200C01FA02F120FA0CFCDCBF41EAC4
:101770000C019040E41AA2BF01EB0451294330BD93
:101780006FEA04041F3C1CDA0C340EDC04F1140470
:10179000C4F1200220FA04F001FA02F340EA030047
:1017A00021FA04F345EA030130BDC4F10C04C4F18D
:1017B000200220FA02F001FA04F340EA030029466D
:1017C00030BD21FA04F0294630BD94F0000F83F4B7
:1017D000801306BF81F480110134013D4EE77FEA9A
:1017E000645C18BF7FEA655C29D094EA050F08BFE6
:1017F00090EA020F05D054EA000C04BF19461046C7
:1018000030BD91EA030F1EBF0021002030BD5FEA0A
:10181000545C05D14000494128BF41F0004130BD32
:1018200014F580043CBF01F5801130BD01F0004586
:1018300045F0FE4141F470014FF0000030BD7FEAF9
:10184000645C1ABF194610467FEA655C1CBF0B46F4
:10185000024650EA013406BF52EA033591EA030F0B
:1018600041F4002130BD00BF90F0000F04BF002103
:10187000704730B54FF4806404F132044FF0000536
:101880004FF0000150E700BF90F0000F04BF0021AF
:10189000704730B54FF4806404F1320410F0004515
:1018A00048BF40424FF000013EE700BF42004FEA10
:1018B000E2014FEA31014FEA02701FBF12F07F438D
:1018C00093F07F4F81F06051704732F07F4208BF44
:1018D000704793F07F4F04BF41F40021704730B54B
:1018E0004FF4607401F0004521F000411CE700BF97
:1018F00050EA010208BF704730B54FF000050AE01A
:1019000050EA010208BF704730B511F0004502D51A
:10191000404261EB41014FF4806404F132045FEA1C
:10192000915C3FF4D8AE4FF003025FEADC0C18BFC5
:1019300003325FEADC0C18BF033202EBDC02C2F1B7
:10194000200300FA03FC20FA02F001FA03FE40EA49
:101950000E0021FA02F11444BDE600BF4FEA410235
:10196000B2F1E04324BFB3F5001CDCF1FE5C0DD9FD
:1019700001F0004C4FEAC0024CEA5070B2F1004F47
:1019800040EB830008BF20F00100704711F0804F4A
:1019900021D113F13872BCBF01F00040704741F40F
:1019A00080114FEA5252C2F11802C2F1200C10FA13
:1019B0000CF320FA02F018BF40F001004FEAC123F7
:1019C0004FEAD32303FA0CFC40EA0C0023FA02F39B
:1019D0004FEA4303CCE77FEA625307D150EA013371
:1019E0001EBF4FF0FE4040F44000704701F0004041
:1019F00040F0FE4040F40000704700BF436843F4ED
:101A0000807343607047436843F02003436070472E
:101A1000836823F4006383607047C06C70478368F9
:101A200023F00203836070471029F0B510D800241A
:101A30006FF03B064FF0010C274623465FFA8CF50A
:101A4000A94206D2013943EA0153C36207634463E2
:101A5000F0BD062D0AD8157806F13C0E05FA0EF5F4
:101A60002C430CF1010C01320536E7E7073D052D4B
:101A700015789BBF06F11E0E05FA0EF5B5402F43F3
:101A800088BF2B43EDE7836843F0804300F10802F1
:101A9000836013685B00FCD4704703680B4214BF7B
:101AA000012000207047C94301607047836843F0FC
:101AB0000103836070470000044AD2F8043323F422
:101AC00040331843C2F80403704700BF00200140B0
:101AD000436823F04073194341607047436843F003
:101AE0008063436070470068C0F3401070478368AC
:101AF00043F4806383607047092910B50BD80369EC
:101B000001EB410107248C4023EA040302FA01F1AE
:101B10001943016110BD0A39C36801EB4101072473
:101B20008C4023EA04038A401A43C260F2E70000B3
:101B3000044AD2F8003C23F00F031843C2F8000C0B
:101B4000704700BF00300240034AD2F8003C43F423
:101B50008063C2F8003C704700300240034AD2F86C
:101B6000003C43F40073C2F8003C70470030024070
:101B700081617047090481617047436901EA03028A
:101B800021EA030141EA024181617047006980B2A4
:101B900070472DE9F0410568C46800264FF0030E38
:101BA00043FA06F7FF070DD577000EFA07FC01FA96
:101BB00007F825EA0C0524EA0C0402FA07F748EABC
:101BC00005053C430136102EEAD10560C460BDE82E
:101BD000F081012941680CBF19439943F0B5416078
:101BE00081680024032643FA04F5ED0707D5650054
:101BF00006FA05F721EA070102FA05F5294301343F
:101C0000102CF0D18160F0BDF0B5076A466A002360
:101C10004FF00F0C42FA03F4E50707D59D000CFACC
:101C200005F427EA040701FA05F52F430133082BD1
:101C3000F0D100234FF00F0C03F1080442FA04F432
:101C4000E40707D59C000CFA04F526EA050601FA1C
:101C500004F426430133082BEED107624662F0BD3F
:101C6000430903F1804303F50E3300F01F001968A8
:101C7000012202FA00F0084318607047430903F19B
:101C8000804303F50E3300F01F001A68012101FAAA
:101C900000F022EA0000186070470000032802D01C
:101CA000052808D07047084AD2F8003843F480234A
:101CB000C2F800387047044AD2F8703843F0040381
:101CC000C2F87038704700BF0030024006282BD899
:101CD000DFE800F0041E240A10161A00134BD3F894
:101CE0000008C0F340607047104BD3F80008C0F301
:101CF000404070470D4BD3F80008C0F340007047D8
:101D00000A4BD3F87008F8E7084BD3F87408F4E7E7
:101D1000064BD3F80008C0F340707047034BD3F86C
:101D20000008C0F3C06070470020704700300240D8
:101D3000032807D10D4AD2F80838C3F38103012BD9
:101D4000F9D17047042806D1084AD2F8083813F0B0
:101D50000C0FFAD170470028FCD1044AD2F8083899
:101D6000C3F38103022BF9D1704700BF003002405A
:101D700006280CD8DFE800F004282E0C12182000EA
:101D8000174AD2F8003843F08073C2F80038704721
:101D9000134AD2F8003843F48033F6E7104AD2F8F9
:101DA000003843F00103F0E70D4AD2F8703843F0F1
:101DB0000103C2F870387047094AD2F8743843F00A
:101DC0000103C2F874387047054AD2F8003843F06E
:101DD0008053DAE7024AD2F8003843F08063D4E750
:101DE0000030024006280CD8DFE800F004282E0C52
:101DF00012182000174AD2F8003823F08073C2F876
:101E000000387047134AD2F8003823F48033F6E7DD
:101E1000104AD2F8003823F00103F0E70D4AD2F857
:101E2000703823F00103C2F870387047094AD2F8BD
:101E3000743823F00103C2F874387047054AD2F8A9
:101E4000003823F08053DAE7024AD2F8003823F052
:101E50008063D4E700300240034AD2F8003823F40C
:101E60000023C2F80038704700300240044AD2F81C
:101E7000083823F003031843C2F80808704700BF6E
:101E800000300240044AD2F8083823F4604343EAA1
:101E90004030C2F80808704700300240044AD2F8C7
:101EA000083823F4E05343EA8020C2F8080870475A
:101EB00000300240044AD2F8083823F0F00343EA25
:101EC0000010C2F8080870470030024010B5029CAC
:101ED000022C38BF022424071B0603F0706304F0B1
:101EE000E04452081C4300F03F0047F6C073013A3B
:101EF00003EA8111044312040C4302F44032034B01
:101F0000144344F48004C3F8044810BD0030024078
:101F1000036843F0400303607047036823F0400305
:101F20000360704783689B07FCD5C1607047836876
:101F3000DB07FCD5C06880B27047036823F4005308
:101F400003607047036823F480630360704703688D
:101F500023F0800303607047072907D8036823F044
:101F600038031B041B0C43EAC1010160704703687E
:101F700043F0040303607047036843F00203036007
:101F80007047036843F0010303607047436843F000
:101F9000040343607047036823F4006303607047E1
:101FA000FEE7704738B51D4A1D4B1E498B4220D3B2
:101FB0001D4A0021934221D34FF0E0231B4CD3F85C
:101FC000142D1B4D42F40072C3F8142DD3F8882D44
:101FD00042F47002C3F8882DAC4212D3154C164D52
:101FE000AC4212D3FEF780FC144C154DAC4210D31A
:101FF00038BD52F8040B43F8040BD7E743F8041B31
:10200000D8E754F8043B9847E6E754F8043B984770
:10201000E6E754F8043B9847E8E700BF683A000851
:10202000000000203800002048000020603A00082E
:10203000603A0008603A0008603A0008603A000818
:10204000603A00084FF0E02320F07F40586170476D
:102050004FF0E023586920F07F4070474FF0E022B6
:1020600000F00400136923F0040303431361704775
:102070004FF0E022136943F00203136170474FF001
:10208000E022136943F00103136170474FF0E0222F
:10209000136923F00103136170470000054B4209E7
:1020A00003EB820300F01F00012202FA00F0186027
:1020B000704700BF00E100E05A2893BF00F1604084
:1020C000044B00F00F0000F564408CBFC154017058
:1020D000704700BF14ED00E09A4238BF8854704743
:1020E00070472DE9F84F99460D9B15469A07DDE993
:1020F0000B4706468B4622D02A460A9901EB040874
:102100001444A2421FD10D9B9B0705D5A2EB0508E5
:10211000474505EB08041FD82046BDE8F88F4B461D
:1021200059462020B04708F10108B8450AEB0802DB
:10213000F5D33A1BBC4288BF00222A44DDE7A04603
:10214000A5EB040AF1E702F1010A18F8010D4B466C
:102150005946B0475246D4E74B46224659462020BE
:10216000B04708F10108D3E72DE9F047DDE90D7626
:1021700016F0020FDDE90854DDE90BC89DF828E0F0
:102180001FD106F001094FB1B9F1000F06D0BEF121
:10219000000F02D116F00C0F00D0013F4FF0300AB3
:1021A00004E0202C04D005F804A00134A045F8D8A0
:1021B0004FF0300AB9F1000F03D0BC4201D21F2CFE
:1021C00034D916F0100F1FD016F4806F33D194B3AA
:1021D000444501D0BC422ED1B4F101082AD0BCF153
:1021E000100F33D1023C16F0200F31D11F2C15D81F
:1021F0004FF0780C05F804C001341F2C0ED84FF0B6
:10220000300C05F804C001341F2C07D8BEF1000FB4
:1022100023D04FF02D0C05F804C00134CDE90A7627
:10222000CDE90854BDE8F047FFF75BBF05F804A00F
:102230000134BFE74446BCF1100FD4D0BCF1020F0B
:10224000DBD11F2CEAD84FF0620CD3E74446F5E708
:102250001F2CE3D84FF0580CCCE716F0040F02D037
:102260004FF02B0CD7E716F0080FD7D04FF0200C0B
:10227000D1E72DE9F04391B0189D1A9E1D9F0DB92D
:1022800027F010077C0500D515B317F0200F14BFF9
:102290004FF0410E4FF0610EAC460DF120080025C5
:1022A000AEF10A0EBCFBF6F906FB19C95FFA89F418
:1022B000B9F1090F94BF30347444E4B2B44508F85E
:1022C000014BBCFBF6F405F1010501D3202D10D123
:1022D0001C9C05941B9C0697CDE903649DF8644003
:1022E000CDE9015408AC0094FFF73EFF11B0BDE802
:1022F000F083A446D6E72DE9F04F2DED048B93B083
:10230000DDE92065289F9A4656EA050308BF27F0B5
:10231000100709EE102A7A05DDE924B908EE100A43
:1023200008EE901A02D556EA05033DD017F0200FAB
:1023300014BF412361230A3B0DF1280800240993AF
:102340005A464B463046294601F056F9D2B2092A80
:102350008ABF099B3032D2185E45D2B275EB0903B1
:1023600008F8012B04F1010401D3202C19D1279B7B
:102370000593269B0697CDE903B39DF88830CDE9F8
:1023800001430AAB009319EE102A18EE901A18EECA
:10239000100A5346FFF7E8FE13B0BDEC048BBDE80E
:1023A000F08F06460D46CBE70024E0E70000000072
:1023B0002DE9F04F2DED088B8DB009EE903ADDE957
:1023C00020439DED1E7B0A93229B079209EE100A83
:1023D000B0EE478AF0EE678A8A46069351EC170BF7
:1023E00053EC172B01F08EF880B1D14B51EC180B48
:1023F0004FF0FF3201F0AEF840B951EC180B4FF03E
:10240000FF326FF4801301F087F898B1069B229396
:102410000A9B079ACDE9204319EE100A19EE903A6B
:1024200051468DED1E8B0DB0BDEC088BBDE8F04F15
:1024300000F0A2B951EC180B0022002301F06CF857
:10244000002800F0458118EE903A18EE108A03F14A
:102450000049069BC9F30A5013F48063A0F2FF30D1
:1024600008BF06240B93FFF70FFAA1A3D3E90023BB
:1024700000F0E0FDA0A3D3E90023FFF7B9F8C9F30A
:1024800013050F4645F07F510646AA4B00224046F1
:1024900041F44011FFF7AAF899A3D3E9002300F013
:1024A000C9FD02460B4630463946FFF7A1F801F058
:1024B0005BF88346FFF7E8F993A3D3E900230646C8
:1024C0000F4600F0B7FD9C4B0022FFF791F801F09A
:1024D0004BF88FA3D3E9002305463946304600F078
:1024E000A9FD064628460F46FFF7CEF98AA3D3E991
:1024F000002300F09FFD02460B4630463946FFF7A9
:1025000075F802460B4606460F4600F093FD32462C
:1025100041EC1A0B3B4630463946FFF769F8874BCA
:1025200041EC1B0B002251EC1A0B00F0ADFE844B6A
:102530000022FFF75DF802460B4651EC1A0B00F043
:10254000A3FE804B0022FFF753F802460B4651ECE6
:102550001A0B00F099FE324641EC1A0B3B46002064
:102560004FF08041FFF742F802460B4651EC1A0B40
:10257000FFF73EF802460B4651EC1B0B00F084FEC1
:1025800005F2FF35704B0022FFF732F800222B05D1
:1025900000F050FD42464B4606460F4600F0DAFF7B
:1025A000002840F09880CDE908670BF16303C72B42
:1025B000069B34BF04250525190522D558A3D3E968
:1025C00000234046494600F0BBFF002800F0BE80D3
:1025D00055A3D3E900234046494600F09DFF00285B
:1025E00000F0B480069B5C45C8BFA4EB0B0043F42D
:1025F00080634FF00005CCBF00F1FF340024069348
:10260000AB460A9B9D4238BF5E1B069B28BF002637
:1026100013F0020702D0002D18BF0026BBF1000FF7
:1026200007D040464946DDE9082300F02DFE8046EC
:10263000894651EC180B0022002300F06DFF10B109
:1026400009F100439946069B079A029423F400631C
:10265000CDE90363CDE9008919EE903A19EE100A2D
:10266000514600F089F875B3069B13F0200F00F176
:102670000106024619EE903A14BF452065205146E6
:1026800019EE104AA0470523002205938BEAEB7050
:102690000A23CDE90232A0EBEB704FEADB73013D78
:1026A0000193009019EE903A19EE100A0495324603
:1026B0005146FFF7DEFD37B1079BC51A079B581936
:1026C0000A9BAB424BD80DB0BDEC088BBDE8F08F38
:1026D00059EC188BBDE61A4B00223046394600F003
:1026E000D3FD0BF1FF3BCDE908015EE7AFF30080BE
:1026F000FB799F501344D33FB3C8608B288AC63FF1
:1027000061436F63A787D23F71A379094F930A4052
:102710001655B5BBB16B0240EF39FAFE422EE63FCB
:102720002D431CEBE2361A3F0000000080842E414E
:10273000FFFFEF7F0000F83F0000E03F00002C406B
:1027400000002440000018400000F03F002C3FF43F
:1027500058AF0B9B002B3FF454AF013C51E70246AE
:1027600019EE903A19EE104A51462020A047013543
:10277000A4E700BF000000002DE9F04F2DED088B0D
:102780008FB0DDE920AB09EE103ADDE9225308EE07
:10279000100A08EE902A0F46049352465B465046B4
:1027A0005946249E00F0AEFEA0B9049B2293032359
:1027B0002193BB4B2396209318EE902A19EE103AE2
:1027C00018EE100A39460FB0BDEC088BBDE8F04F8B
:1027D000FFF787BC4FF0FF326FF480135046594625
:1027E00000F09AFE30B1049B229304232193239698
:1027F000AC4BE0E7AC4B4FF0FF325046594600F08F
:10280000A9FE70B1A94A0499239606F00403002B8F
:1028100008BF0322A64B1CBF13460422CDE9212189
:10282000C9E79BA3D3E900235046594600F092FE26
:1028300038B999A3D3E900235046594600F06CFEFD
:1028400098B1049B2496CDE9225318EE902A19EEF4
:10285000103A18EE100A3946CDE920AB0FB0BDECA6
:10286000088BBDE8F04FFFF7A3BD002200235046C0
:10287000594600F051FE002800F081805B46524628
:1028800000200021FEF7B2FE012382468B4605930D
:1028900016F4806F08BF062506ABA5F12002A946F5
:1028A0003021B9F1090FA5EB090406D909F1FF3967
:1028B0004A4503F8011BF4D120245946504600F044
:1028C00053FE7C4B03EBC90393ED007B0546B0EE52
:1028D00047AAF0EE67AAFEF7D7FF02460B4650461E
:1028E0005946FEF783FE53EC1A2B00F0A3FB024679
:1028F0000B4643EC1B2B00F05FFE8046FEF7B4FF57
:1029000002460B4651EC1B0BFEF770FE02460B46CF
:1029100043EC1B2B684B002200F01CFE88B308F12F
:1029200001084046FEF7A0FF02460B4651EC1A0B89
:1029300000F0FCFD10B101354FF00008B9F1000FB7
:102940004ED12846FEF7A0FF02460B465046594698
:10295000FEF74CFE584B00228046894600F0DCFD15
:1029600030B1554B00224046494600F0F3FD10B10E
:10297000E80700D5013506AB23440A2257E005904D
:1029800086E74D4B51EC1B0B002200F0C5FD0028E3
:10299000D4D1B8F1000F02D018F0010FCED008F159
:1029A0000108CBE7B8FBF1F001FB10823032B8F13F
:1029B000090F03F8012B09F1FF3904F1010426D8AE
:1029C000A14406AA3021202C0FD04C4504F101036C
:1029D0001FD10EAA14442E2204F8202C1C46CAE74C
:1029E00006AB23440A21202CDCD106F00303012B83
:1029F00006AB39D1049A002A36D0059A12B916F0DE
:102A00000C0F02D0049A013A0492302214E080465E
:102A1000E9E7A1541C46D6E795FBF2F102FB1155FC
:102A2000303503F8015B01340D460029DDD0202C40
:102A3000F2D1DAE71A5501340499A14214D9202CB5
:102A4000F8D1049A0093CDE9014219EE103A18EE3C
:102A5000902A18EE100A03963946FFF742FB0FB092
:102A6000BDEC088BBDE8F08F202CEAD0059A32B17E
:102A70000EAA22442D2102F8201C0134E1E771073F
:102A80001CD50EAA22442B21F5E700BFAFF300802E
:102A90000000000065CDCD410000000065CDCDC136
:102AA000033A0008073A0008FFFFEF7FFE390008ED
:102AB000FA390008103A00080000E03F3207C0D59C
:102AC0000EAA22442021D6E72DE9F04F91B000292B
:102AD0000A93BA4B1A9E904614BF81469946002528
:102AE0000A9B187858B945452CBF08F1FF322A4691
:102AF00043460020C847284611B0BDE8F08F0A9B26
:102B0000252803F101030A9306D02A466C1C43468C
:102B10000B91C8472546B6E1002206E02D2B14D0C4
:102B2000302B0CD142F001020A900A9810F8013BB8
:102B30002B2B0DD0F2D8202B0DD0232B0ED0A3F1B0
:102B40003004092C28D8002710E042F00202EBE7FD
:102B500042F00402E8E742F00802E5E742F0100222
:102B6000E2E70A2404FB0737303F0A900A9810F87E
:102B7000013BA3F13004092CF3D90A9B1B782E2BBF
:102B800067D10A9B581C5B78A3F13004092C42F4EE
:102B9000806255D8002411E02A2B08D156F8047B16
:102BA0000A90002FBCBF42F002027F42E5E70027F7
:102BB000E3E70A2000FB0434303C604684461CF8FE
:102BC000013BA3F1300EBEF1090FF2D9034613F811
:102BD00001CBBCF16C0F48D03ED8BCF1680F4DD092
:102BE000BCF16A0F55D0034613F8010B0A937828FD
:102BF0008BD8572850D8452805D086D9462800F0CC
:102C00002F81472881D100F0DF03472B04BF00F05C
:102C1000FD0042F40062452808BF42F02002CDE9E1
:102C20000372073626F007060294F6E802234846A8
:102C3000CDE9002343462A460B91FFF7B9FB21E17A
:102C40002A2B07D156F8044B0A9824EAE474023080
:102C5000BCE70A980024B9E7BCF1740F02D0BCF1BC
:102C60007A0FC0D142F48072BEE790F801C0BCF187
:102C70006C0FF7D142F44072831CB5E790F801C0A5
:102C8000BCF1680F02D042F08002ADE742F0C00212
:102C9000F2E742F40072A7E7A0F15803202B3FF6B9
:102CA00034AF0FF2080C5CF823F000BF312D0008A0
:102CB0000B2B00080B2B00080B2B00080B2B00081C
:102CC0000B2B00080B2B00080B2B00080B2B00080C
:102CD0000B2B0008312D00088B2E0008312D000829
:102CE000072C0008652E0008072C00080B2B000895
:102CF000312D00080B2B00080B2B00080B2B0008B4
:102D00000B2B00080B2B0008312D0008D32F0008D7
:102D10000B2B00080B2B0008072F00080B2B0008BB
:102D2000312D00080B2B00080B2B0008312D00085B
:102D3000782800F06481582800F05F816F2800F047
:102D40006081622800F05F81692822F010024FF054
:102D50000A0303D0642801D022F00C0212F4806F21
:102D600018BF22F00102692802F4007C01D0642817
:102D700041D1BCF1000F23D0073626F00706B2463A
:102D800076685AF8080B049300230593F30F002E7E
:102D90000293CDE907720694034602DA434266EBDA
:102DA0004606CDE9003643462A4648460B91FFF7D2
:102DB000A2FA0B990546564692E600BFE1200008AC
:102DC000D00506F1040A0CD53068CDE90472CDE9CE
:102DD000023400284FEAD0730193B8BF40420090FC
:102DE00027E012F0400F306801D0C0B2EDE71606C0
:102DF00048BF00B2E9E7BCF1000F0ED0CDE9077281
:102E00000022CDE90432073626F0070A0694029222
:102E1000FAE80223CDE90023C5E7D00506F1040A4C
:102E20000ED5CDE90472CDE90234CDF804C0336883
:102E3000009343462A4648460B91FFF71AFAB8E733
:102E400012F0400F306807D0C0B2CDE90234002341
:102E5000CDE904720193C2E7160648BF80B2F4E7D9
:102E600042F02002CDE90372073626F007060294ED
:102E7000F6E802234846CDE9002343462A460B9153
:102E8000FFF77AFC05460B992AE612F0020426D0D9
:102E90004FF0010A56F8040B0B9143462A46C0B284
:102EA000C84705F1010B0B995CB354465A4620E024
:102EB0000B9143462020C8470B990AEB05020AF103
:102EC000010A5745F4D8002F07F1FF3308BF00234C
:102ED00007F1010A1D4408BF4FF0020ADAE7A246D3
:102EE000EBE70B9143462020551CC8470B99013452
:102EF0002A46BC42F5D3A7EB0A03574538BF002347
:102F00009B445D46ECE53346002C53F804AB0B9331
:102F100014BF23464FF0FF335344D3469BF80000C1
:102F200008B19B4511D112F48063ABEB0A0B0C93F3
:102F300002D0A34528BFA34612F002030D931BD174
:102F4000ABEB05032A460E9309E00BF1010BE5E715
:102F50000F9143462020561CC8470F9932460E9BBE
:102F6000D3189F42F4D8A7EB0B035F4538BF00236B
:102F70000BF1010B1D449B445646A5EB0A0A05E0E4
:102F80001C460E9143462A46C8470E990AEB060591
:102F900016F8010B28B10C9B002BF2D0631E002CFD
:102FA000EED10D9B9BB12A46ABEB050406E00C91DC
:102FB00043462020561CC8470C993246A318BB42F2
:102FC000F5D3A7EB0B035F4538BF00231D440B9ED1
:102FD00086E542F021020823CDE903430592002350
:102FE0001022CDE9013256F8043B00932A464346AD
:102FF00048460B91FFF73DF944E742F020021023C9
:10300000AAE60823A8E60223A6E600BF0CB41FB573
:1030100006AC0A4654F8043B009401460448039465
:10302000FFF752FD04B0BDE8104002B0704700BF8A
:10303000D920000870B54FF0FF0C4CF4E06C1CEA8E
:1030400011541DBF1CEA135594EA0C0F95EA0C0F9E
:1030500000F0DEF82C4481EA030621EA4C5123EA11
:103060004C5350EA013518BF52EA033541F4801140
:1030700043F4801338D0A0FB02CE4FF00005E1FBF3
:1030800002E506F00042E0FB03E54FF00006E1FB3D
:1030900003569CF0000F18BF4EF0010EA4F1FF0480
:1030A000B6F5007F64F5407404D25FEA4E0E6D41C0
:1030B00046EB060642EAC62141EA55514FEAC520D1
:1030C00040EA5E504FEACE2EB4F1FD0C88BFBCF54D
:1030D000E06F1ED8BEF1004F08BF5FEA500E50F1FE
:1030E000000041EB045170BD06F0004646EA0101C4
:1030F00040EA020081EA0301B4EB5C04C2BFD4EBF6
:103100000C0541EA045170BD41F480114FF0000EEE
:10311000013C00F3AB8014F1360FDEBF002001F05C
:10312000004170BDC4F10004203C35DA0C341BDCD6
:1031300004F11404C4F1200500FA05F320FA04F0A8
:1031400001FA05F240EA020001F0004221F00041DC
:1031500010EBD37021FA04F642EB06015EEA430E4F
:1031600008BF20EAD37070BDC4F10C04C4F120057F
:1031700000FA04F320FA05F001FA04F240EA020032
:1031800001F0004110EBD37041F100015EEA430E03
:1031900008BF20EAD37070BDC4F1200500FA05F223
:1031A0004EEA020E20FA04F301FA05F243EA0203A2
:1031B00021FA04F001F0004121FA04F220EA0200B1
:1031C00000EBD3705EEA430E08BF20EAD37070BDF7
:1031D00094F0000F0FD101F00046400041EB0101D7
:1031E00011F4801F08BF013CF7D041EA060195F0B9
:1031F000000F18BF704703F00046520043EB030373
:1032000013F4801F08BF013DF7D043EA060370475F
:1032100094EA0C0F0CEA135518BF95EA0C0F0CD06A
:1032200050EA410618BF52EA4306D1D181EA0301B0
:1032300001F000414FF0000070BD50EA410606BFAA
:103240001046194652EA430619D094EA0C0F02D1EF
:1032500050EA013613D195EA0C0F05D152EA033634
:103260001CBF104619460AD181EA030101F0004152
:1032700041F0FE4141F470014FF0000070BD41F09B
:10328000FE4141F4780170BD70B54FF0FF0C4CF475
:10329000E06C1CEA11541DBF1CEA135594EA0C0F94
:1032A00095EA0C0F00F0A7F8A4EB050481EA030EE1
:1032B00052EA03354FEA013100F088804FEA0333C8
:1032C0004FF0805545EA131343EA12634FEA022296
:1032D00045EA111545EA10654FEA00260EF0004157
:1032E0009D4208BF964244F1FD0404F5407402D2A9
:1032F0005B084FEA3202B61A65EB03055B084FEA3A
:1033000032024FF480104FF4002CB6EB020E75EB36
:10331000030E22BFB61A754640EA0C005B084FEA5E
:103320003202B6EB020E75EB030E22BFB61A7546DB
:1033300040EA5C005B084FEA3202B6EB020E75EB26
:10334000030E22BFB61A754640EA9C005B084FEA9E
:103350003202B6EB020E75EB030E22BFB61A7546AB
:1033600040EADC0055EA060E18D04FEA051545EA9A
:1033700016754FEA06164FEAC30343EA52734FEA43
:10338000C2025FEA1C1CC0D111F4801F0BD141EABC
:1033900000014FF000004FF0004CB6E711F4801F21
:1033A00004BF01430020B4F1FD0C88BFBCF5E06F01
:1033B0003FF6AFAEB5EB030C04BFB6EB020C5FEA11
:1033C000500C50F1000041EB045170BD0EF0004E66
:1033D0004EEA113114EB5C04C2BFD4EB0C0541EA98
:1033E000045170BD41F480114FF0000E013C90E695
:1033F00045EA060E8DE60CEA135594EA0C0F08BF59
:1034000095EA0C0F3FF43BAF94EA0C0F0AD150EA57
:1034100001347FF434AF95EA0C0F7FF425AF1046EA
:1034200019462CE795EA0C0F06D152EA03353FF412
:10343000FDAE1046194622E750EA410618BF52EA8F
:1034400043067FF4C5AE50EA41047FF40DAF52EA63
:1034500043057FF4EBAE12E74FF0FF3C06E000BF00
:103460004FF0010C02E000BF4FF0010C4DF804CD0D
:103470004FEA410C7FEA6C5C4FEA430C18BF7FEACD
:103480006C5C1BD001B050EA410C0CBF52EA430CFB
:1034900091EA030F02BF90EA020F0020704710F17B
:1034A000000F91EA030F58BF994208BF90422CBF0A
:1034B000D8176FEAE37040F0010070474FEA410C03
:1034C0007FEA6C5C02D150EA013C07D14FEA430C21
:1034D0007FEA6C5CD6D152EA033CD3D05DF8040B92
:1034E000704700BF8446104662468C4619466346C4
:1034F00000E000BF01B5FFF7B7FF002848BF10F19B
:10350000000F01BD4DF808EDFFF7F4FF0CBF0120DF
:1035100000205DF808FB00BF4DF808EDFFF7EAFF5B
:1035200034BF012000205DF808FB00BF4DF808ED16
:10353000FFF7E0FF94BF012000205DF808FB00BF0B
:103540004DF808EDFFF7CEFF94BF012000205DF895
:1035500008FB00BF4DF808EDFFF7C4FF34BF0120A2
:1035600000205DF808FB00BF4FEA410212F500128F
:1035700015D211D56FF47873B3EB625212D94FEABA
:10358000C12343F0004343EA505311F0004F23FAA4
:1035900002F018BF404270474FF00000704750EAF9
:1035A000013005D111F0004008BF6FF000407047B6
:1035B0004FF00000704700BF4A0011D212F5001210
:1035C00011D20DD56FF47873B3EB62520ED44FEA7B
:1035D000C12343F0004343EA505323FA02F07047FB
:1035E0004FF00000704750EA013002D14FF0FF3039
:1035F00070474FF00000704753B94AB9002908BF1F
:1036000000281CBF4FF0FF314FF0FF3000F062B9CF
:10361000ADF1080C6DE904CE00F006F8DDF804E029
:10362000DDE9022304B070472DE9F04F099E88467A
:103630008E46154604461946002B40F0C780424589
:10364000B2FA82F746D94FB1C7F1200C08FA07F356
:1036500020FA0CFCBD404CEA030EBC404FEA154872
:103660001FFA85FCBEFBF8F9220C08FB19E309FBE5
:103670000CFA42EA03439A4528D9EB1809F1FF30C6
:1036800004D29A4502D9A9F102002B44A3EB0A0304
:10369000A4B2B3FBF8F208FB123302FB0CFC44EAC1
:1036A0000344A44514D92C1902F1FF3303D2A445D5
:1036B00001D9931E2C44A4EB0C0443EA00401EB134
:1036C000FC40002334607360BDE8F08F4846DDE7BE
:1036D0001346F0E702B9FFDE8FBBA8EB020301211E
:1036E0004FEA154EAAB2B3FBFEFC200C0EFB1C33B6
:1036F0000CFB02F840EA0343984563D9EB180CF140
:10370000FF3004D2984502D9ACF102002B44A3EB60
:103710000803A4B2B3FBFEFC0EFB1C330CFB02F24D
:1037200044EA0344A2424FD92C190CF1FF3304D2CE
:10373000A24202D9ACF102032C44A41ABDE7C7F19E
:10374000200C28FA0CF908FA07F320FA0CFCBD400B
:103750004CEA03024FEA154EABB2B9FBFEFC110C6A
:103760000EFB1C900CFB03F841EA0040804504FA74
:1037700007F423D928180CF1FF3104D2804502D96F
:10378000ACF102012844A0EB080092B2B0FBFEFCB1
:103790000EFB1C000CFB03F842EA004398450FD9CE
:1037A000EB180CF1FF3204D2984502D9ACF10202B9
:1037B0002B44A3EB080342EA014191E76146E2E7AB
:1037C0006246F6E76046A2E76346B6E7434505D999
:1037D0000EB1C6E900080021084675E7B3FA83FC7C
:1037E000BCF1000F10D1434501D382420AD8841A9C
:1037F00068EB030301209E46002E68D0C6E9004E08
:10380000002161E76046F7E7CCF1200E03FA0CF3E4
:1038100022FA0EF41C4320FA0EF108FA0CF328FAEF
:103820000EFB19434FEA144902FA0CF5BBFBF9F8F9
:10383000A3B209FB18BB0A0C08FB03FA42EA0B42CD
:10384000924500FA0CF73ED9A21808F1FF3004D2D5
:10385000924502D9A8F102002244A2EB0A0289B2E1
:10386000B2FBF9F809FB182208FB03F341EA024214
:1038700093422AD9A21808F1FF3104D2934202D907
:10388000A8F10201224441EA0040A0FB0598D21AA7
:1038900042454B46414602D306D14F4504D2B9EBCF
:1038A000050368EB040101388EB1FC1A62EB0107D5
:1038B00007FA0EFE24FA0CF34EEA030327FA0CF77C
:1038C000C6E900379CE74046C7E74146DBE731469B
:1038D000FAE60000704700BF25643A202564B02551
:1038E000632025647365630025352E31660061769B
:1038F00065726567653A00252D357320B043005425
:103900003A202564B0256300202020256473656378
:10391000007265636F72646073206E756D626572AC
:10392000002020203C2020256420203E00696E7469
:10393000657276616C20732E00205E200020762058
:10394000256320203C202563203E0054656D7020B7
:103950006C6F6767657220256300543D2564B02550
:1039600063206C2E613A25580082019201F001B269
:103970000162019400040000F00000B4007400A48F
:1039800000C300D3007300CACBFFFFFFFFFFFFFFA0
:10399000FFFFFFFFFFFFFFFFFFA1FFFFA2FF45C8E3
:1039A000FFFFFF49EFFF4969B4FFFFDFB5CC65C9F1
:1039B000FFFFFF6941A042A1E045A3A4A5A64BA734
:1039C0004D484FA8504354A9AA58E1ABACE2ADAE64
:1039D00062AFB0B161B2B3B4E365B6B7B8B9BABB60
:1039E000BCBD6FBE7063BF79E478E5C0C1E6C2C3F9
:1039F000C4C5C6C7200305020601666E6900666E6F
:103A0000692B006E616E00666E692D00000000007B
:103A1000000000000000F03F000000000000244013
:103A200000000000000059400000000000408F40EE
:103A3000000000000088C34000000000006AF84059
:103A40000000000080842E4100000000D01263417D
:103A50000000000084D797410000000065CDCD41F3
:083A6000C8FBFF7F010000001C
:103A6800753900087D3900087B3900087F3900085E
:103A78007339000800000000000000001910000859
:103A880001000000D9100008000000000024F40024
:083A98000024F4000024F400F6
:0400000508001FA52B
:00000001FF
